{
  "_format": "hh-sol-artifact-1",
  "contractName": "GeoPrize",
  "sourceName": "contracts/GeoPrize-Contract.sol",
  "abi": [
    {
      "inputs": [
        {
          "internalType": "int256",
          "name": "_minLatitude",
          "type": "int256"
        },
        {
          "internalType": "int256",
          "name": "_maxLatitude",
          "type": "int256"
        },
        {
          "internalType": "int256",
          "name": "_minLongitude",
          "type": "int256"
        },
        {
          "internalType": "int256",
          "name": "_maxLongitude",
          "type": "int256"
        },
        {
          "internalType": "int256",
          "name": "_multiplier",
          "type": "int256"
        },
        {
          "internalType": "address",
          "name": "_recipient",
          "type": "address"
        }
      ],
      "stateMutability": "payable",
      "type": "constructor"
    },
    {
      "inputs": [
        {
          "internalType": "int256",
          "name": "latitude",
          "type": "int256"
        },
        {
          "internalType": "int256",
          "name": "longitude",
          "type": "int256"
        }
      ],
      "name": "claimReward",
      "outputs": [],
      "stateMutability": "payable",
      "type": "function"
    },
    {
      "inputs": [],
      "name": "deposit",
      "outputs": [],
      "stateMutability": "payable",
      "type": "function"
    },
    {
      "inputs": [],
      "name": "maxLatitude",
      "outputs": [
        {
          "internalType": "int256",
          "name": "",
          "type": "int256"
        }
      ],
      "stateMutability": "view",
      "type": "function"
    },
    {
      "inputs": [],
      "name": "maxLongitude",
      "outputs": [
        {
          "internalType": "int256",
          "name": "",
          "type": "int256"
        }
      ],
      "stateMutability": "view",
      "type": "function"
    },
    {
      "inputs": [],
      "name": "minLatitude",
      "outputs": [
        {
          "internalType": "int256",
          "name": "",
          "type": "int256"
        }
      ],
      "stateMutability": "view",
      "type": "function"
    },
    {
      "inputs": [],
      "name": "minLongitude",
      "outputs": [
        {
          "internalType": "int256",
          "name": "",
          "type": "int256"
        }
      ],
      "stateMutability": "view",
      "type": "function"
    },
    {
      "inputs": [],
      "name": "multiplier",
      "outputs": [
        {
          "internalType": "int256",
          "name": "",
          "type": "int256"
        }
      ],
      "stateMutability": "view",
      "type": "function"
    },
    {
      "inputs": [],
      "name": "owner",
      "outputs": [
        {
          "internalType": "address payable",
          "name": "",
          "type": "address"
        }
      ],
      "stateMutability": "view",
      "type": "function"
    },
    {
      "inputs": [],
      "name": "recipient",
      "outputs": [
        {
          "internalType": "address payable",
          "name": "",
          "type": "address"
        }
      ],
      "stateMutability": "view",
      "type": "function"
    },
    {
      "inputs": [],
      "name": "withdraw",
      "outputs": [],
      "stateMutability": "nonpayable",
      "type": "function"
    }
  ],
  "bytecode": "0x608060405260405162000c7938038062000c7983398181016040528101906200002991906200017e565b336000806101000a81548173ffffffffffffffffffffffffffffffffffffffff021916908373ffffffffffffffffffffffffffffffffffffffff160217905550856001819055508460028190555083600381905550826004819055508160058190555080600660006101000a81548173ffffffffffffffffffffffffffffffffffffffff021916908373ffffffffffffffffffffffffffffffffffffffff1602179055505050505050506200021a565b600080fd5b6000819050919050565b620000f381620000de565b8114620000ff57600080fd5b50565b6000815190506200011381620000e8565b92915050565b600073ffffffffffffffffffffffffffffffffffffffff82169050919050565b6000620001468262000119565b9050919050565b620001588162000139565b81146200016457600080fd5b50565b60008151905062000178816200014d565b92915050565b60008060008060008060c087890312156200019e576200019d620000d9565b5b6000620001ae89828a0162000102565b9650506020620001c189828a0162000102565b9550506040620001d489828a0162000102565b9450506060620001e789828a0162000102565b9350506080620001fa89828a0162000102565b92505060a06200020d89828a0162000167565b9150509295509295509295565b610a4f806200022a6000396000f3fe6080604052600436106100915760003560e01c806366d003ac1161005957806366d003ac1461014a5780638da5cb5b146101755780639b4bc108146101a0578063c71aa68f146101cb578063d0e30db0146101f657610091565b806305408989146100965780631b3ed722146100b25780632be9c52c146100dd5780633a943492146101085780633ccfd60b14610133575b600080fd5b6100b060048036038101906100ab9190610622565b610200565b005b3480156100be57600080fd5b506100c76103b5565b6040516100d49190610671565b60405180910390f35b3480156100e957600080fd5b506100f26103bb565b6040516100ff9190610671565b60405180910390f35b34801561011457600080fd5b5061011d6103c1565b60405161012a9190610671565b60405180910390f35b34801561013f57600080fd5b506101486103c7565b005b34801561015657600080fd5b5061015f6104be565b60405161016c91906106cd565b60405180910390f35b34801561018157600080fd5b5061018a6104e4565b60405161019791906106cd565b60405180910390f35b3480156101ac57600080fd5b506101b5610508565b6040516101c29190610671565b60405180910390f35b3480156101d757600080fd5b506101e061050e565b6040516101ed9190610671565b60405180910390f35b6101fe610514565b005b600660009054906101000a900473ffffffffffffffffffffffffffffffffffffffff1673ffffffffffffffffffffffffffffffffffffffff163373ffffffffffffffffffffffffffffffffffffffff1614610290576040517f08c379a00000000000000000000000000000000000000000000000000000000081526004016102879061076b565b60405180910390fd5b600047905060015483121580156102a957506002548313155b80156102b757506003548212155b80156102c557506004548213155b610304576040517f08c379a00000000000000000000000000000000000000000000000000000000081526004016102fb906107fd565b60405180910390fd5b60008111610347576040517f08c379a000000000000000000000000000000000000000000000000000000000815260040161033e9061088f565b60405180910390fd5b600660009054906101000a900473ffffffffffffffffffffffffffffffffffffffff1673ffffffffffffffffffffffffffffffffffffffff166108fc829081150290604051600060405180830381858888f193505050501580156103af573d6000803e3d6000fd5b50505050565b60055481565b60045481565b60025481565b60008054906101000a900473ffffffffffffffffffffffffffffffffffffffff1673ffffffffffffffffffffffffffffffffffffffff163373ffffffffffffffffffffffffffffffffffffffff1614610455576040517f08c379a000000000000000000000000000000000000000000000000000000000815260040161044c906108fb565b60405180910390fd5b60008054906101000a900473ffffffffffffffffffffffffffffffffffffffff1673ffffffffffffffffffffffffffffffffffffffff166108fc479081150290604051600060405180830381858888f193505050501580156104bb573d6000803e3d6000fd5b50565b600660009054906101000a900473ffffffffffffffffffffffffffffffffffffffff1681565b60008054906101000a900473ffffffffffffffffffffffffffffffffffffffff1681565b60015481565b60035481565b60008054906101000a900473ffffffffffffffffffffffffffffffffffffffff1673ffffffffffffffffffffffffffffffffffffffff163373ffffffffffffffffffffffffffffffffffffffff16146105a2576040517f08c379a000000000000000000000000000000000000000000000000000000000815260040161059990610967565b60405180910390fd5b600034116105e5576040517f08c379a00000000000000000000000000000000000000000000000000000000081526004016105dc906109f9565b60405180910390fd5b565b600080fd5b6000819050919050565b6105ff816105ec565b811461060a57600080fd5b50565b60008135905061061c816105f6565b92915050565b60008060408385031215610639576106386105e7565b5b60006106478582860161060d565b92505060206106588582860161060d565b9150509250929050565b61066b816105ec565b82525050565b60006020820190506106866000830184610662565b92915050565b600073ffffffffffffffffffffffffffffffffffffffff82169050919050565b60006106b78261068c565b9050919050565b6106c7816106ac565b82525050565b60006020820190506106e260008301846106be565b92915050565b600082825260208201905092915050565b7f4f6e6c792074686520726563697069656e742063616e2072656465656d20746860008201527f6520617761726400000000000000000000000000000000000000000000000000602082015250565b60006107556027836106e8565b9150610760826106f9565b604082019050919050565b6000602082019050818103600083015261078481610748565b9050919050565b7f55736572206973206e6f742077697468696e207468652073706563696669656460008201527f2067656f6c6f636174696f6e20626f756e64732e000000000000000000000000602082015250565b60006107e76034836106e8565b91506107f28261078b565b604082019050919050565b60006020820190508181036000830152610816816107da565b9050919050565b7f546865726520617265206e6f2066756e647320617661696c61626c6520696e2060008201527f74686520736d61727420636f6e74726163742e00000000000000000000000000602082015250565b60006108796033836106e8565b91506108848261081d565b604082019050919050565b600060208201905081810360008301526108a88161086c565b9050919050565b7f4f6e6c7920746865206f776e65722063616e2077697468647261772e00000000600082015250565b60006108e5601c836106e8565b91506108f0826108af565b602082019050919050565b60006020820190508181036000830152610914816108d8565b9050919050565b7f4f6e6c7920746865206f776e65722063616e206465706f736974000000000000600082015250565b6000610951601a836106e8565b915061095c8261091b565b602082019050919050565b6000602082019050818103600083015261098081610944565b9050919050565b7f596f75206d7573742073656e64206120706f73697469766520616d6f756e742060008201527f6f662045746865722e0000000000000000000000000000000000000000000000602082015250565b60006109e36029836106e8565b91506109ee82610987565b604082019050919050565b60006020820190508181036000830152610a12816109d6565b905091905056fea26469706673582212200ab574de70570af37db38273382d794a97a7ffa546edc53cfa1ac4355ec91d0164736f6c63430008120033",
  "linkReferences": {},
  "deployedLinkReferences": {}
}