{
  "_format": "hh-sol-artifact-1",
  "contractName": "GeoPrize",
  "sourceName": "contracts/GeoPrize-Contract.sol",
  "abi": [
    {
      "inputs": [
        {
          "internalType": "int256",
          "name": "_minLatitude",
          "type": "int256"
        },
        {
          "internalType": "int256",
          "name": "_maxLatitude",
          "type": "int256"
        },
        {
          "internalType": "int256",
          "name": "_minLongitude",
          "type": "int256"
        },
        {
          "internalType": "int256",
          "name": "_maxLongitude",
          "type": "int256"
        },
        {
          "internalType": "int256",
          "name": "_multiplier",
          "type": "int256"
        }
      ],
      "stateMutability": "payable",
      "type": "constructor"
    },
    {
      "inputs": [
        {
          "internalType": "int256",
          "name": "latitude",
          "type": "int256"
        },
        {
          "internalType": "int256",
          "name": "longitude",
          "type": "int256"
        }
      ],
      "name": "claimReward",
      "outputs": [],
      "stateMutability": "payable",
      "type": "function"
    },
    {
      "inputs": [],
      "name": "deposit",
      "outputs": [],
      "stateMutability": "payable",
      "type": "function"
    },
    {
      "inputs": [],
      "name": "maxLatitude",
      "outputs": [
        {
          "internalType": "int256",
          "name": "",
          "type": "int256"
        }
      ],
      "stateMutability": "view",
      "type": "function"
    },
    {
      "inputs": [],
      "name": "maxLongitude",
      "outputs": [
        {
          "internalType": "int256",
          "name": "",
          "type": "int256"
        }
      ],
      "stateMutability": "view",
      "type": "function"
    },
    {
      "inputs": [],
      "name": "minLatitude",
      "outputs": [
        {
          "internalType": "int256",
          "name": "",
          "type": "int256"
        }
      ],
      "stateMutability": "view",
      "type": "function"
    },
    {
      "inputs": [],
      "name": "minLongitude",
      "outputs": [
        {
          "internalType": "int256",
          "name": "",
          "type": "int256"
        }
      ],
      "stateMutability": "view",
      "type": "function"
    },
    {
      "inputs": [],
      "name": "multiplier",
      "outputs": [
        {
          "internalType": "int256",
          "name": "",
          "type": "int256"
        }
      ],
      "stateMutability": "view",
      "type": "function"
    },
    {
      "inputs": [],
      "name": "owner",
      "outputs": [
        {
          "internalType": "address payable",
          "name": "",
          "type": "address"
        }
      ],
      "stateMutability": "view",
      "type": "function"
    },
    {
      "inputs": [],
      "name": "withdraw",
      "outputs": [],
      "stateMutability": "nonpayable",
      "type": "function"
    }
  ],
  "bytecode": "0x6080604052604051610a06380380610a06833981810160405281019061002591906100cd565b336000806101000a81548173ffffffffffffffffffffffffffffffffffffffff021916908373ffffffffffffffffffffffffffffffffffffffff16021790555084600181905550836002819055508260038190555081600481905550806005819055505050505050610148565b600080fd5b6000819050919050565b6100aa81610097565b81146100b557600080fd5b50565b6000815190506100c7816100a1565b92915050565b600080600080600060a086880312156100e9576100e8610092565b5b60006100f7888289016100b8565b9550506020610108888289016100b8565b9450506040610119888289016100b8565b935050606061012a888289016100b8565b925050608061013b888289016100b8565b9150509295509295909350565b6108af806101576000396000f3fe6080604052600436106100865760003560e01c80633ccfd60b116100595780633ccfd60b146101285780638da5cb5b1461013f5780639b4bc1081461016a578063c71aa68f14610195578063d0e30db0146101c057610086565b8063054089891461008b5780631b3ed722146100a75780632be9c52c146100d25780633a943492146100fd575b600080fd5b6100a560048036038101906100a09190610514565b6101ca565b005b3480156100b357600080fd5b506100bc6102cd565b6040516100c99190610563565b60405180910390f35b3480156100de57600080fd5b506100e76102d3565b6040516100f49190610563565b60405180910390f35b34801561010957600080fd5b506101126102d9565b60405161011f9190610563565b60405180910390f35b34801561013457600080fd5b5061013d6102df565b005b34801561014b57600080fd5b506101546103d6565b60405161016191906105bf565b60405180910390f35b34801561017657600080fd5b5061017f6103fa565b60405161018c9190610563565b60405180910390f35b3480156101a157600080fd5b506101aa610400565b6040516101b79190610563565b60405180910390f35b6101c8610406565b005b600047905060015483121580156101e357506002548313155b80156101f157506003548212155b80156101ff57506004548213155b61023e576040517f08c379a00000000000000000000000000000000000000000000000000000000081526004016102359061065d565b60405180910390fd5b60008111610281576040517f08c379a0000000000000000000000000000000000000000000000000000000008152600401610278906106ef565b60405180910390fd5b3373ffffffffffffffffffffffffffffffffffffffff166108fc829081150290604051600060405180830381858888f193505050501580156102c7573d6000803e3d6000fd5b50505050565b60055481565b60045481565b60025481565b60008054906101000a900473ffffffffffffffffffffffffffffffffffffffff1673ffffffffffffffffffffffffffffffffffffffff163373ffffffffffffffffffffffffffffffffffffffff161461036d576040517f08c379a00000000000000000000000000000000000000000000000000000000081526004016103649061075b565b60405180910390fd5b60008054906101000a900473ffffffffffffffffffffffffffffffffffffffff1673ffffffffffffffffffffffffffffffffffffffff166108fc479081150290604051600060405180830381858888f193505050501580156103d3573d6000803e3d6000fd5b50565b60008054906101000a900473ffffffffffffffffffffffffffffffffffffffff1681565b60015481565b60035481565b60008054906101000a900473ffffffffffffffffffffffffffffffffffffffff1673ffffffffffffffffffffffffffffffffffffffff163373ffffffffffffffffffffffffffffffffffffffff1614610494576040517f08c379a000000000000000000000000000000000000000000000000000000000815260040161048b906107c7565b60405180910390fd5b600034116104d7576040517f08c379a00000000000000000000000000000000000000000000000000000000081526004016104ce90610859565b60405180910390fd5b565b600080fd5b6000819050919050565b6104f1816104de565b81146104fc57600080fd5b50565b60008135905061050e816104e8565b92915050565b6000806040838503121561052b5761052a6104d9565b5b6000610539858286016104ff565b925050602061054a858286016104ff565b9150509250929050565b61055d816104de565b82525050565b60006020820190506105786000830184610554565b92915050565b600073ffffffffffffffffffffffffffffffffffffffff82169050919050565b60006105a98261057e565b9050919050565b6105b98161059e565b82525050565b60006020820190506105d460008301846105b0565b92915050565b600082825260208201905092915050565b7f55736572206973206e6f742077697468696e207468652073706563696669656460008201527f2067656f6c6f636174696f6e20626f756e64732e000000000000000000000000602082015250565b60006106476034836105da565b9150610652826105eb565b604082019050919050565b600060208201905081810360008301526106768161063a565b9050919050565b7f546865726520617265206e6f2066756e647320617661696c61626c6520696e2060008201527f74686520736d61727420636f6e74726163742e00000000000000000000000000602082015250565b60006106d96033836105da565b91506106e48261067d565b604082019050919050565b60006020820190508181036000830152610708816106cc565b9050919050565b7f4f6e6c7920746865206f776e65722063616e2077697468647261772e00000000600082015250565b6000610745601c836105da565b91506107508261070f565b602082019050919050565b6000602082019050818103600083015261077481610738565b9050919050565b7f4f6e6c7920746865206f776e65722063616e206465706f736974000000000000600082015250565b60006107b1601a836105da565b91506107bc8261077b565b602082019050919050565b600060208201905081810360008301526107e0816107a4565b9050919050565b7f596f75206d7573742073656e64206120706f73697469766520616d6f756e742060008201527f6f662045746865722e0000000000000000000000000000000000000000000000602082015250565b60006108436029836105da565b915061084e826107e7565b604082019050919050565b6000602082019050818103600083015261087281610836565b905091905056fea264697066735822122018ea8a6212dc9599e835e27acdfb0f7819b9ad468c3e9c821c5a2f628671522364736f6c63430008120033",
  "linkReferences": {},
  "deployedLinkReferences": {}
}