{
  "_format": "hh-sol-artifact-1",
  "contractName": "GeoPrize",
  "sourceName": "contracts/GeoPrize-Contract.sol",
  "abi": [
    {
      "inputs": [
        {
          "internalType": "int256",
          "name": "_minLatitude",
          "type": "int256"
        },
        {
          "internalType": "int256",
          "name": "_maxLatitude",
          "type": "int256"
        },
        {
          "internalType": "int256",
          "name": "_minLongitude",
          "type": "int256"
        },
        {
          "internalType": "int256",
          "name": "_maxLongitude",
          "type": "int256"
        }
      ],
      "stateMutability": "payable",
      "type": "constructor"
    },
    {
      "inputs": [],
      "name": "claimReward",
      "outputs": [],
      "stateMutability": "payable",
      "type": "function"
    },
    {
      "inputs": [],
      "name": "maxLatitude",
      "outputs": [
        {
          "internalType": "int256",
          "name": "",
          "type": "int256"
        }
      ],
      "stateMutability": "view",
      "type": "function"
    },
    {
      "inputs": [],
      "name": "maxLongitude",
      "outputs": [
        {
          "internalType": "int256",
          "name": "",
          "type": "int256"
        }
      ],
      "stateMutability": "view",
      "type": "function"
    },
    {
      "inputs": [],
      "name": "minLatitude",
      "outputs": [
        {
          "internalType": "int256",
          "name": "",
          "type": "int256"
        }
      ],
      "stateMutability": "view",
      "type": "function"
    },
    {
      "inputs": [],
      "name": "minLongitude",
      "outputs": [
        {
          "internalType": "int256",
          "name": "",
          "type": "int256"
        }
      ],
      "stateMutability": "view",
      "type": "function"
    },
    {
      "inputs": [],
      "name": "owner",
      "outputs": [
        {
          "internalType": "address payable",
          "name": "",
          "type": "address"
        }
      ],
      "stateMutability": "view",
      "type": "function"
    },
    {
      "inputs": [],
      "name": "withdraw",
      "outputs": [],
      "stateMutability": "nonpayable",
      "type": "function"
    }
  ],
  "bytecode": "0x6080604052604051610642380380610642833981810160405281019061002591906100c5565b336000806101000a81548173ffffffffffffffffffffffffffffffffffffffff021916908373ffffffffffffffffffffffffffffffffffffffff160217905550836001819055508260028190555081600381905550806004819055505050505061012c565b600080fd5b6000819050919050565b6100a28161008f565b81146100ad57600080fd5b50565b6000815190506100bf81610099565b92915050565b600080600080608085870312156100df576100de61008a565b5b60006100ed878288016100b0565b94505060206100fe878288016100b0565b935050604061010f878288016100b0565b9250506060610120878288016100b0565b91505092959194509250565b6105078061013b6000396000f3fe6080604052600436106100705760003560e01c80638da5cb5b1161004e5780638da5cb5b146100e25780639b4bc1081461010d578063b88a802f14610138578063c71aa68f1461014257610070565b80632be9c52c146100755780633a943492146100a05780633ccfd60b146100cb575b600080fd5b34801561008157600080fd5b5061008a61016d565b604051610097919061034b565b60405180910390f35b3480156100ac57600080fd5b506100b5610173565b6040516100c2919061034b565b60405180910390f35b3480156100d757600080fd5b506100e0610179565b005b3480156100ee57600080fd5b506100f7610270565b60405161010491906103a7565b60405180910390f35b34801561011957600080fd5b50610122610294565b60405161012f919061034b565b60405180910390f35b61014061029a565b005b34801561014e57600080fd5b5061015761032c565b604051610164919061034b565b60405180910390f35b60045481565b60025481565b60008054906101000a900473ffffffffffffffffffffffffffffffffffffffff1673ffffffffffffffffffffffffffffffffffffffff163373ffffffffffffffffffffffffffffffffffffffff1614610207576040517f08c379a00000000000000000000000000000000000000000000000000000000081526004016101fe9061041f565b60405180910390fd5b60008054906101000a900473ffffffffffffffffffffffffffffffffffffffff1673ffffffffffffffffffffffffffffffffffffffff166108fc479081150290604051600060405180830381858888f1935050505015801561026d573d6000803e3d6000fd5b50565b60008054906101000a900473ffffffffffffffffffffffffffffffffffffffff1681565b60015481565b6000479050600081116102e2576040517f08c379a00000000000000000000000000000000000000000000000000000000081526004016102d9906104b1565b60405180910390fd5b3373ffffffffffffffffffffffffffffffffffffffff166108fc829081150290604051600060405180830381858888f19350505050158015610328573d6000803e3d6000fd5b5050565b60035481565b6000819050919050565b61034581610332565b82525050565b6000602082019050610360600083018461033c565b92915050565b600073ffffffffffffffffffffffffffffffffffffffff82169050919050565b600061039182610366565b9050919050565b6103a181610386565b82525050565b60006020820190506103bc6000830184610398565b92915050565b600082825260208201905092915050565b7f4f6e6c7920746865206f776e65722063616e2077697468647261772e00000000600082015250565b6000610409601c836103c2565b9150610414826103d3565b602082019050919050565b60006020820190508181036000830152610438816103fc565b9050919050565b7f546865726520617265206e6f2066756e647320617661696c61626c6520696e2060008201527f74686520736d61727420636f6e74726163742e00000000000000000000000000602082015250565b600061049b6033836103c2565b91506104a68261043f565b604082019050919050565b600060208201905081810360008301526104ca8161048e565b905091905056fea2646970667358221220d9f59fd3fea1affeceaa226baa63dbc718388f5631b52feb83d90cf9b356891164736f6c63430008120033",
  "linkReferences": {},
  "deployedLinkReferences": {}
}