{
  "_format": "hh-sol-artifact-1",
  "contractName": "GeoPrize",
  "sourceName": "contracts/GeoPrize-Contract.sol",
  "abi": [
    {
      "inputs": [
        {
          "internalType": "int256",
          "name": "_minLatitude",
          "type": "int256"
        },
        {
          "internalType": "int256",
          "name": "_maxLatitude",
          "type": "int256"
        },
        {
          "internalType": "int256",
          "name": "_minLongitude",
          "type": "int256"
        },
        {
          "internalType": "int256",
          "name": "_maxLongitude",
          "type": "int256"
        },
        {
          "internalType": "uint256",
          "name": "_rewardAmount",
          "type": "uint256"
        }
      ],
      "stateMutability": "nonpayable",
      "type": "constructor"
    },
    {
      "anonymous": false,
      "inputs": [
        {
          "indexed": true,
          "internalType": "address",
          "name": "user",
          "type": "address"
        },
        {
          "indexed": false,
          "internalType": "uint256",
          "name": "amount",
          "type": "uint256"
        }
      ],
      "name": "RewardClaimed",
      "type": "event"
    },
    {
      "inputs": [
        {
          "internalType": "int256",
          "name": "latitude",
          "type": "int256"
        },
        {
          "internalType": "int256",
          "name": "longitude",
          "type": "int256"
        }
      ],
      "name": "claimReward",
      "outputs": [],
      "stateMutability": "payable",
      "type": "function"
    },
    {
      "inputs": [
        {
          "internalType": "int256",
          "name": "latitude",
          "type": "int256"
        },
        {
          "internalType": "int256",
          "name": "longitude",
          "type": "int256"
        }
      ],
      "name": "isWithinBounds",
      "outputs": [
        {
          "internalType": "bool",
          "name": "",
          "type": "bool"
        }
      ],
      "stateMutability": "view",
      "type": "function"
    },
    {
      "inputs": [],
      "name": "maxLatitude",
      "outputs": [
        {
          "internalType": "int256",
          "name": "",
          "type": "int256"
        }
      ],
      "stateMutability": "view",
      "type": "function"
    },
    {
      "inputs": [],
      "name": "maxLongitude",
      "outputs": [
        {
          "internalType": "int256",
          "name": "",
          "type": "int256"
        }
      ],
      "stateMutability": "view",
      "type": "function"
    },
    {
      "inputs": [],
      "name": "minLatitude",
      "outputs": [
        {
          "internalType": "int256",
          "name": "",
          "type": "int256"
        }
      ],
      "stateMutability": "view",
      "type": "function"
    },
    {
      "inputs": [],
      "name": "minLongitude",
      "outputs": [
        {
          "internalType": "int256",
          "name": "",
          "type": "int256"
        }
      ],
      "stateMutability": "view",
      "type": "function"
    },
    {
      "inputs": [],
      "name": "owner",
      "outputs": [
        {
          "internalType": "address payable",
          "name": "",
          "type": "address"
        }
      ],
      "stateMutability": "view",
      "type": "function"
    },
    {
      "inputs": [],
      "name": "rewardAmount",
      "outputs": [
        {
          "internalType": "uint256",
          "name": "",
          "type": "uint256"
        }
      ],
      "stateMutability": "view",
      "type": "function"
    },
    {
      "inputs": [],
      "name": "withdraw",
      "outputs": [],
      "stateMutability": "nonpayable",
      "type": "function"
    }
  ],
  "bytecode": "0x608060405234801561001057600080fd5b50604051610a3f380380610a3f83398181016040528101906100329190610110565b336000806101000a81548173ffffffffffffffffffffffffffffffffffffffff021916908373ffffffffffffffffffffffffffffffffffffffff1602179055508460018190555083600281905550826003819055508160048190555080600581905550505050505061018b565b600080fd5b6000819050919050565b6100b7816100a4565b81146100c257600080fd5b50565b6000815190506100d4816100ae565b92915050565b6000819050919050565b6100ed816100da565b81146100f857600080fd5b50565b60008151905061010a816100e4565b92915050565b600080600080600060a0868803121561012c5761012b61009f565b5b600061013a888289016100c5565b955050602061014b888289016100c5565b945050604061015c888289016100c5565b935050606061016d888289016100c5565b925050608061017e888289016100fb565b9150509295509295909350565b6108a58061019a6000396000f3fe6080604052600436106100865760003560e01c80638da5cb5b116100595780638da5cb5b146101145780639b4bc1081461013f578063b94e2b7d1461016a578063c71aa68f146101a7578063f7b2a7be146101d257610086565b8063054089891461008b5780632be9c52c146100a75780633a943492146100d25780633ccfd60b146100fd575b600080fd5b6100a560048036038101906100a0919061053b565b6101fd565b005b3480156100b357600080fd5b506100bc61038d565b6040516100c9919061058a565b60405180910390f35b3480156100de57600080fd5b506100e7610393565b6040516100f4919061058a565b60405180910390f35b34801561010957600080fd5b50610112610399565b005b34801561012057600080fd5b50610129610490565b60405161013691906105e6565b60405180910390f35b34801561014b57600080fd5b506101546104b4565b604051610161919061058a565b60405180910390f35b34801561017657600080fd5b50610191600480360381019061018c919061053b565b6104ba565b60405161019e919061061c565b60405180910390f35b3480156101b357600080fd5b506101bc6104f4565b6040516101c9919061058a565b60405180910390f35b3480156101de57600080fd5b506101e76104fa565b6040516101f49190610650565b60405180910390f35b600554341015610242576040517f08c379a0000000000000000000000000000000000000000000000000000000008152600401610239906106ee565b60405180910390fd5b61024c82826104ba565b61028b576040517f08c379a000000000000000000000000000000000000000000000000000000000815260040161028290610780565b60405180910390fd5b6005543411156102f0576000600554346102a591906107cf565b90503373ffffffffffffffffffffffffffffffffffffffff166108fc829081150290604051600060405180830381858888f193505050501580156102ed573d6000803e3d6000fd5b50505b3373ffffffffffffffffffffffffffffffffffffffff166108fc6005549081150290604051600060405180830381858888f19350505050158015610338573d6000803e3d6000fd5b503373ffffffffffffffffffffffffffffffffffffffff167f106f923f993c2149d49b4255ff723acafa1f2d94393f561d3eda32ae348f72416005546040516103819190610650565b60405180910390a25050565b60045481565b60025481565b60008054906101000a900473ffffffffffffffffffffffffffffffffffffffff1673ffffffffffffffffffffffffffffffffffffffff163373ffffffffffffffffffffffffffffffffffffffff1614610427576040517f08c379a000000000000000000000000000000000000000000000000000000000815260040161041e9061084f565b60405180910390fd5b60008054906101000a900473ffffffffffffffffffffffffffffffffffffffff1673ffffffffffffffffffffffffffffffffffffffff166108fc479081150290604051600060405180830381858888f1935050505015801561048d573d6000803e3d6000fd5b50565b60008054906101000a900473ffffffffffffffffffffffffffffffffffffffff1681565b60015481565b600060015483121580156104d057506002548313155b80156104de57506003548212155b80156104ec57506004548213155b905092915050565b60035481565b60055481565b600080fd5b6000819050919050565b61051881610505565b811461052357600080fd5b50565b6000813590506105358161050f565b92915050565b6000806040838503121561055257610551610500565b5b600061056085828601610526565b925050602061057185828601610526565b9150509250929050565b61058481610505565b82525050565b600060208201905061059f600083018461057b565b92915050565b600073ffffffffffffffffffffffffffffffffffffffff82169050919050565b60006105d0826105a5565b9050919050565b6105e0816105c5565b82525050565b60006020820190506105fb60008301846105d7565b92915050565b60008115159050919050565b61061681610601565b82525050565b6000602082019050610631600083018461060d565b92915050565b6000819050919050565b61064a81610637565b82525050565b60006020820190506106656000830184610641565b92915050565b600082825260208201905092915050565b7f4e6f7420656e6f7567682045746865722073656e7420746f20636c61696d207260008201527f65776172642e0000000000000000000000000000000000000000000000000000602082015250565b60006106d860268361066b565b91506106e38261067c565b604082019050919050565b60006020820190508181036000830152610707816106cb565b9050919050565b7f5468652070726f766964656420636f6f7264696e6174657320617265206e6f7460008201527f2077697468696e207468652073706563696669656420626f756e64732e000000602082015250565b600061076a603d8361066b565b91506107758261070e565b604082019050919050565b600060208201905081810360008301526107998161075d565b9050919050565b7f4e487b7100000000000000000000000000000000000000000000000000000000600052601160045260246000fd5b60006107da82610637565b91506107e583610637565b92508282039050818111156107fd576107fc6107a0565b5b92915050565b7f4f6e6c7920746865206f776e65722063616e2077697468647261772e00000000600082015250565b6000610839601c8361066b565b915061084482610803565b602082019050919050565b600060208201905081810360008301526108688161082c565b905091905056fea264697066735822122088d83fb1ddef4523a076182027e6729ff42eaafb683e1b3df4662bc5b861e66a64736f6c63430008120033",
  "linkReferences": {},
  "deployedLinkReferences": {}
}