{
  "_format": "hh-sol-artifact-1",
  "contractName": "GeoPrize",
  "sourceName": "contracts/GeoPrize-Contract.sol",
  "abi": [
    {
      "inputs": [
        {
          "internalType": "int256",
          "name": "_minLatitude",
          "type": "int256"
        },
        {
          "internalType": "int256",
          "name": "_maxLatitude",
          "type": "int256"
        },
        {
          "internalType": "int256",
          "name": "_minLongitude",
          "type": "int256"
        },
        {
          "internalType": "int256",
          "name": "_maxLongitude",
          "type": "int256"
        },
        {
          "internalType": "uint256",
          "name": "_rewardAmount",
          "type": "uint256"
        }
      ],
      "stateMutability": "nonpayable",
      "type": "constructor"
    },
    {
      "anonymous": false,
      "inputs": [
        {
          "indexed": false,
          "internalType": "int256",
          "name": "minLat",
          "type": "int256"
        },
        {
          "indexed": false,
          "internalType": "int256",
          "name": "maxLat",
          "type": "int256"
        },
        {
          "indexed": false,
          "internalType": "int256",
          "name": "minLong",
          "type": "int256"
        },
        {
          "indexed": false,
          "internalType": "int256",
          "name": "maxLong",
          "type": "int256"
        },
        {
          "indexed": false,
          "internalType": "int256",
          "name": "latitude",
          "type": "int256"
        },
        {
          "indexed": false,
          "internalType": "int256",
          "name": "longitude",
          "type": "int256"
        }
      ],
      "name": "BoundsChecked",
      "type": "event"
    },
    {
      "anonymous": false,
      "inputs": [
        {
          "indexed": true,
          "internalType": "address",
          "name": "user",
          "type": "address"
        },
        {
          "indexed": false,
          "internalType": "uint256",
          "name": "amount",
          "type": "uint256"
        }
      ],
      "name": "RewardClaimed",
      "type": "event"
    },
    {
      "inputs": [
        {
          "internalType": "int256",
          "name": "latitude",
          "type": "int256"
        },
        {
          "internalType": "int256",
          "name": "longitude",
          "type": "int256"
        }
      ],
      "name": "claimReward",
      "outputs": [],
      "stateMutability": "nonpayable",
      "type": "function"
    },
    {
      "inputs": [
        {
          "internalType": "int256",
          "name": "latitude",
          "type": "int256"
        },
        {
          "internalType": "int256",
          "name": "longitude",
          "type": "int256"
        }
      ],
      "name": "isWithinBounds",
      "outputs": [
        {
          "internalType": "bool",
          "name": "",
          "type": "bool"
        }
      ],
      "stateMutability": "view",
      "type": "function"
    },
    {
      "inputs": [],
      "name": "maxLatitude",
      "outputs": [
        {
          "internalType": "int256",
          "name": "",
          "type": "int256"
        }
      ],
      "stateMutability": "view",
      "type": "function"
    },
    {
      "inputs": [],
      "name": "maxLongitude",
      "outputs": [
        {
          "internalType": "int256",
          "name": "",
          "type": "int256"
        }
      ],
      "stateMutability": "view",
      "type": "function"
    },
    {
      "inputs": [],
      "name": "minLatitude",
      "outputs": [
        {
          "internalType": "int256",
          "name": "",
          "type": "int256"
        }
      ],
      "stateMutability": "view",
      "type": "function"
    },
    {
      "inputs": [],
      "name": "minLongitude",
      "outputs": [
        {
          "internalType": "int256",
          "name": "",
          "type": "int256"
        }
      ],
      "stateMutability": "view",
      "type": "function"
    },
    {
      "inputs": [],
      "name": "owner",
      "outputs": [
        {
          "internalType": "address payable",
          "name": "",
          "type": "address"
        }
      ],
      "stateMutability": "view",
      "type": "function"
    },
    {
      "inputs": [],
      "name": "rewardAmount",
      "outputs": [
        {
          "internalType": "uint256",
          "name": "",
          "type": "uint256"
        }
      ],
      "stateMutability": "view",
      "type": "function"
    },
    {
      "inputs": [],
      "name": "withdraw",
      "outputs": [],
      "stateMutability": "nonpayable",
      "type": "function"
    }
  ],
  "bytecode": "0x608060405234801561001057600080fd5b506040516108ee3803806108ee83398181016040528101906100329190610110565b336000806101000a81548173ffffffffffffffffffffffffffffffffffffffff021916908373ffffffffffffffffffffffffffffffffffffffff1602179055508460018190555083600281905550826003819055508160048190555080600581905550505050505061018b565b600080fd5b6000819050919050565b6100b7816100a4565b81146100c257600080fd5b50565b6000815190506100d4816100ae565b92915050565b6000819050919050565b6100ed816100da565b81146100f857600080fd5b50565b60008151905061010a816100e4565b92915050565b600080600080600060a0868803121561012c5761012b61009f565b5b600061013a888289016100c5565b955050602061014b888289016100c5565b945050604061015c888289016100c5565b935050606061016d888289016100c5565b925050608061017e888289016100fb565b9150509295509295909350565b6107548061019a6000396000f3fe608060405234801561001057600080fd5b50600436106100935760003560e01c80638da5cb5b116100665780638da5cb5b146100fa5780639b4bc10814610118578063b94e2b7d14610136578063c71aa68f14610166578063f7b2a7be1461018457610093565b806305408989146100985780632be9c52c146100b45780633a943492146100d25780633ccfd60b146100f0575b600080fd5b6100b260048036038101906100ad919061047e565b6101a2565b005b6100bc6102d0565b6040516100c991906104cd565b60405180910390f35b6100da6102d6565b6040516100e791906104cd565b60405180910390f35b6100f86102dc565b005b6101026103d3565b60405161010f9190610529565b60405180910390f35b6101206103f7565b60405161012d91906104cd565b60405180910390f35b610150600480360381019061014b919061047e565b6103fd565b60405161015d919061055f565b60405180910390f35b61016e610437565b60405161017b91906104cd565b60405180910390f35b61018c61043d565b6040516101999190610593565b60405180910390f35b7e26685a14ad3f1dcfe983fe17a22a2afd4d3c21cafd9ad5c8ffa86fa28b587a60015460025460035460045486866040516101e2969594939291906105ae565b60405180910390a16101f482826103fd565b610233576040517f08c379a000000000000000000000000000000000000000000000000000000000815260040161022a90610692565b60405180910390fd5b3373ffffffffffffffffffffffffffffffffffffffff166108fc6005549081150290604051600060405180830381858888f1935050505015801561027b573d6000803e3d6000fd5b503373ffffffffffffffffffffffffffffffffffffffff167f106f923f993c2149d49b4255ff723acafa1f2d94393f561d3eda32ae348f72416005546040516102c49190610593565b60405180910390a25050565b60045481565b60025481565b60008054906101000a900473ffffffffffffffffffffffffffffffffffffffff1673ffffffffffffffffffffffffffffffffffffffff163373ffffffffffffffffffffffffffffffffffffffff161461036a576040517f08c379a0000000000000000000000000000000000000000000000000000000008152600401610361906106fe565b60405180910390fd5b60008054906101000a900473ffffffffffffffffffffffffffffffffffffffff1673ffffffffffffffffffffffffffffffffffffffff166108fc479081150290604051600060405180830381858888f193505050501580156103d0573d6000803e3d6000fd5b50565b60008054906101000a900473ffffffffffffffffffffffffffffffffffffffff1681565b60015481565b6000600154831215801561041357506002548313155b801561042157506003548212155b801561042f57506004548213155b905092915050565b60035481565b60055481565b600080fd5b6000819050919050565b61045b81610448565b811461046657600080fd5b50565b60008135905061047881610452565b92915050565b6000806040838503121561049557610494610443565b5b60006104a385828601610469565b92505060206104b485828601610469565b9150509250929050565b6104c781610448565b82525050565b60006020820190506104e260008301846104be565b92915050565b600073ffffffffffffffffffffffffffffffffffffffff82169050919050565b6000610513826104e8565b9050919050565b61052381610508565b82525050565b600060208201905061053e600083018461051a565b92915050565b60008115159050919050565b61055981610544565b82525050565b60006020820190506105746000830184610550565b92915050565b6000819050919050565b61058d8161057a565b82525050565b60006020820190506105a86000830184610584565b92915050565b600060c0820190506105c360008301896104be565b6105d060208301886104be565b6105dd60408301876104be565b6105ea60608301866104be565b6105f760808301856104be565b61060460a08301846104be565b979650505050505050565b600082825260208201905092915050565b7f5468652070726f766964656420636f6f7264696e6174657320617265206e6f7460008201527f2077697468696e207468652073706563696669656420626f756e64732e000000602082015250565b600061067c603d8361060f565b915061068782610620565b604082019050919050565b600060208201905081810360008301526106ab8161066f565b9050919050565b7f4f6e6c7920746865206f776e65722063616e2077697468647261772e00000000600082015250565b60006106e8601c8361060f565b91506106f3826106b2565b602082019050919050565b60006020820190508181036000830152610717816106db565b905091905056fea2646970667358221220dc69cec09c480edbe4d4c2ebc51fc5fd2c7eaffa7e30827161ab54a427bb95a364736f6c63430008120033",
  "linkReferences": {},
  "deployedLinkReferences": {}
}