{"contracts/GeoPrize-Contract.sol":{"GeoPrize":{"abi":[{"inputs":[{"internalType":"int256","name":"_minLatitude","type":"int256"},{"internalType":"int256","name":"_maxLatitude","type":"int256"},{"internalType":"int256","name":"_minLongitude","type":"int256"},{"internalType":"int256","name":"_maxLongitude","type":"int256"},{"internalType":"uint256","name":"_rewardAmount","type":"uint256"}],"stateMutability":"nonpayable","type":"constructor"},{"anonymous":false,"inputs":[{"indexed":false,"internalType":"int256","name":"minLat","type":"int256"},{"indexed":false,"internalType":"int256","name":"maxLat","type":"int256"},{"indexed":false,"internalType":"int256","name":"minLong","type":"int256"},{"indexed":false,"internalType":"int256","name":"maxLong","type":"int256"},{"indexed":false,"internalType":"int256","name":"latitude","type":"int256"},{"indexed":false,"internalType":"int256","name":"longitude","type":"int256"}],"name":"BoundsChecked","type":"event"},{"anonymous":false,"inputs":[{"indexed":true,"internalType":"address","name":"user","type":"address"},{"indexed":false,"internalType":"uint256","name":"amount","type":"uint256"}],"name":"RewardClaimed","type":"event"},{"inputs":[{"internalType":"int256","name":"latitude","type":"int256"},{"internalType":"int256","name":"longitude","type":"int256"}],"name":"claimReward","outputs":[],"stateMutability":"nonpayable","type":"function"},{"inputs":[{"internalType":"int256","name":"latitude","type":"int256"},{"internalType":"int256","name":"longitude","type":"int256"}],"name":"isWithinBounds","outputs":[{"internalType":"bool","name":"","type":"bool"}],"stateMutability":"view","type":"function"},{"inputs":[],"name":"maxLatitude","outputs":[{"internalType":"int256","name":"","type":"int256"}],"stateMutability":"view","type":"function"},{"inputs":[],"name":"maxLongitude","outputs":[{"internalType":"int256","name":"","type":"int256"}],"stateMutability":"view","type":"function"},{"inputs":[],"name":"minLatitude","outputs":[{"internalType":"int256","name":"","type":"int256"}],"stateMutability":"view","type":"function"},{"inputs":[],"name":"minLongitude","outputs":[{"internalType":"int256","name":"","type":"int256"}],"stateMutability":"view","type":"function"},{"inputs":[],"name":"owner","outputs":[{"internalType":"address payable","name":"","type":"address"}],"stateMutability":"view","type":"function"},{"inputs":[],"name":"rewardAmount","outputs":[{"internalType":"uint256","name":"","type":"uint256"}],"stateMutability":"view","type":"function"},{"inputs":[],"name":"withdraw","outputs":[],"stateMutability":"nonpayable","type":"function"}],"evm":{"bytecode":{"linkReferences":{},"object":"608060405234801561001057600080fd5b506040516108ee3803806108ee83398181016040528101906100329190610110565b336000806101000a81548173ffffffffffffffffffffffffffffffffffffffff021916908373ffffffffffffffffffffffffffffffffffffffff1602179055508460018190555083600281905550826003819055508160048190555080600581905550505050505061018b565b600080fd5b6000819050919050565b6100b7816100a4565b81146100c257600080fd5b50565b6000815190506100d4816100ae565b92915050565b6000819050919050565b6100ed816100da565b81146100f857600080fd5b50565b60008151905061010a816100e4565b92915050565b600080600080600060a0868803121561012c5761012b61009f565b5b600061013a888289016100c5565b955050602061014b888289016100c5565b945050604061015c888289016100c5565b935050606061016d888289016100c5565b925050608061017e888289016100fb565b9150509295509295909350565b6107548061019a6000396000f3fe608060405234801561001057600080fd5b50600436106100935760003560e01c80638da5cb5b116100665780638da5cb5b146100fa5780639b4bc10814610118578063b94e2b7d14610136578063c71aa68f14610166578063f7b2a7be1461018457610093565b806305408989146100985780632be9c52c146100b45780633a943492146100d25780633ccfd60b146100f0575b600080fd5b6100b260048036038101906100ad919061047e565b6101a2565b005b6100bc6102d0565b6040516100c991906104cd565b60405180910390f35b6100da6102d6565b6040516100e791906104cd565b60405180910390f35b6100f86102dc565b005b6101026103d3565b60405161010f9190610529565b60405180910390f35b6101206103f7565b60405161012d91906104cd565b60405180910390f35b610150600480360381019061014b919061047e565b6103fd565b60405161015d919061055f565b60405180910390f35b61016e610437565b60405161017b91906104cd565b60405180910390f35b61018c61043d565b6040516101999190610593565b60405180910390f35b7e26685a14ad3f1dcfe983fe17a22a2afd4d3c21cafd9ad5c8ffa86fa28b587a60015460025460035460045486866040516101e2969594939291906105ae565b60405180910390a16101f482826103fd565b610233576040517f08c379a000000000000000000000000000000000000000000000000000000000815260040161022a90610692565b60405180910390fd5b3373ffffffffffffffffffffffffffffffffffffffff166108fc6005549081150290604051600060405180830381858888f1935050505015801561027b573d6000803e3d6000fd5b503373ffffffffffffffffffffffffffffffffffffffff167f106f923f993c2149d49b4255ff723acafa1f2d94393f561d3eda32ae348f72416005546040516102c49190610593565b60405180910390a25050565b60045481565b60025481565b60008054906101000a900473ffffffffffffffffffffffffffffffffffffffff1673ffffffffffffffffffffffffffffffffffffffff163373ffffffffffffffffffffffffffffffffffffffff161461036a576040517f08c379a0000000000000000000000000000000000000000000000000000000008152600401610361906106fe565b60405180910390fd5b60008054906101000a900473ffffffffffffffffffffffffffffffffffffffff1673ffffffffffffffffffffffffffffffffffffffff166108fc479081150290604051600060405180830381858888f193505050501580156103d0573d6000803e3d6000fd5b50565b60008054906101000a900473ffffffffffffffffffffffffffffffffffffffff1681565b60015481565b6000600154831215801561041357506002548313155b801561042157506003548212155b801561042f57506004548213155b905092915050565b60035481565b60055481565b600080fd5b6000819050919050565b61045b81610448565b811461046657600080fd5b50565b60008135905061047881610452565b92915050565b6000806040838503121561049557610494610443565b5b60006104a385828601610469565b92505060206104b485828601610469565b9150509250929050565b6104c781610448565b82525050565b60006020820190506104e260008301846104be565b92915050565b600073ffffffffffffffffffffffffffffffffffffffff82169050919050565b6000610513826104e8565b9050919050565b61052381610508565b82525050565b600060208201905061053e600083018461051a565b92915050565b60008115159050919050565b61055981610544565b82525050565b60006020820190506105746000830184610550565b92915050565b6000819050919050565b61058d8161057a565b82525050565b60006020820190506105a86000830184610584565b92915050565b600060c0820190506105c360008301896104be565b6105d060208301886104be565b6105dd60408301876104be565b6105ea60608301866104be565b6105f760808301856104be565b61060460a08301846104be565b979650505050505050565b600082825260208201905092915050565b7f5468652070726f766964656420636f6f7264696e6174657320617265206e6f7460008201527f2077697468696e207468652073706563696669656420626f756e64732e000000602082015250565b600061067c603d8361060f565b915061068782610620565b604082019050919050565b600060208201905081810360008301526106ab8161066f565b9050919050565b7f4f6e6c7920746865206f776e65722063616e2077697468647261772e00000000600082015250565b60006106e8601c8361060f565b91506106f3826106b2565b602082019050919050565b60006020820190508181036000830152610717816106db565b905091905056fea2646970667358221220dc69cec09c480edbe4d4c2ebc51fc5fd2c7eaffa7e30827161ab54a427bb95a364736f6c63430008120033","opcodes":"PUSH1 0x80 PUSH1 0x40 MSTORE CALLVALUE DUP1 ISZERO PUSH2 0x10 JUMPI PUSH1 0x0 DUP1 REVERT JUMPDEST POP PUSH1 0x40 MLOAD PUSH2 0x8EE CODESIZE SUB DUP1 PUSH2 0x8EE DUP4 CODECOPY DUP2 DUP2 ADD PUSH1 0x40 MSTORE DUP2 ADD SWAP1 PUSH2 0x32 SWAP2 SWAP1 PUSH2 0x110 JUMP JUMPDEST CALLER PUSH1 0x0 DUP1 PUSH2 0x100 EXP DUP2 SLOAD DUP2 PUSH20 0xFFFFFFFFFFFFFFFFFFFFFFFFFFFFFFFFFFFFFFFF MUL NOT AND SWAP1 DUP4 PUSH20 0xFFFFFFFFFFFFFFFFFFFFFFFFFFFFFFFFFFFFFFFF AND MUL OR SWAP1 SSTORE POP DUP5 PUSH1 0x1 DUP2 SWAP1 SSTORE POP DUP4 PUSH1 0x2 DUP2 SWAP1 SSTORE POP DUP3 PUSH1 0x3 DUP2 SWAP1 SSTORE POP DUP2 PUSH1 0x4 DUP2 SWAP1 SSTORE POP DUP1 PUSH1 0x5 DUP2 SWAP1 SSTORE POP POP POP POP POP POP PUSH2 0x18B JUMP JUMPDEST PUSH1 0x0 DUP1 REVERT JUMPDEST PUSH1 0x0 DUP2 SWAP1 POP SWAP2 SWAP1 POP JUMP JUMPDEST PUSH2 0xB7 DUP2 PUSH2 0xA4 JUMP JUMPDEST DUP2 EQ PUSH2 0xC2 JUMPI PUSH1 0x0 DUP1 REVERT JUMPDEST POP JUMP JUMPDEST PUSH1 0x0 DUP2 MLOAD SWAP1 POP PUSH2 0xD4 DUP2 PUSH2 0xAE JUMP JUMPDEST SWAP3 SWAP2 POP POP JUMP JUMPDEST PUSH1 0x0 DUP2 SWAP1 POP SWAP2 SWAP1 POP JUMP JUMPDEST PUSH2 0xED DUP2 PUSH2 0xDA JUMP JUMPDEST DUP2 EQ PUSH2 0xF8 JUMPI PUSH1 0x0 DUP1 REVERT JUMPDEST POP JUMP JUMPDEST PUSH1 0x0 DUP2 MLOAD SWAP1 POP PUSH2 0x10A DUP2 PUSH2 0xE4 JUMP JUMPDEST SWAP3 SWAP2 POP POP JUMP JUMPDEST PUSH1 0x0 DUP1 PUSH1 0x0 DUP1 PUSH1 0x0 PUSH1 0xA0 DUP7 DUP9 SUB SLT ISZERO PUSH2 0x12C JUMPI PUSH2 0x12B PUSH2 0x9F JUMP JUMPDEST JUMPDEST PUSH1 0x0 PUSH2 0x13A DUP9 DUP3 DUP10 ADD PUSH2 0xC5 JUMP JUMPDEST SWAP6 POP POP PUSH1 0x20 PUSH2 0x14B DUP9 DUP3 DUP10 ADD PUSH2 0xC5 JUMP JUMPDEST SWAP5 POP POP PUSH1 0x40 PUSH2 0x15C DUP9 DUP3 DUP10 ADD PUSH2 0xC5 JUMP JUMPDEST SWAP4 POP POP PUSH1 0x60 PUSH2 0x16D DUP9 DUP3 DUP10 ADD PUSH2 0xC5 JUMP JUMPDEST SWAP3 POP POP PUSH1 0x80 PUSH2 0x17E DUP9 DUP3 DUP10 ADD PUSH2 0xFB JUMP JUMPDEST SWAP2 POP POP SWAP3 SWAP6 POP SWAP3 SWAP6 SWAP1 SWAP4 POP JUMP JUMPDEST PUSH2 0x754 DUP1 PUSH2 0x19A PUSH1 0x0 CODECOPY PUSH1 0x0 RETURN INVALID PUSH1 0x80 PUSH1 0x40 MSTORE CALLVALUE DUP1 ISZERO PUSH2 0x10 JUMPI PUSH1 0x0 DUP1 REVERT JUMPDEST POP PUSH1 0x4 CALLDATASIZE LT PUSH2 0x93 JUMPI PUSH1 0x0 CALLDATALOAD PUSH1 0xE0 SHR DUP1 PUSH4 0x8DA5CB5B GT PUSH2 0x66 JUMPI DUP1 PUSH4 0x8DA5CB5B EQ PUSH2 0xFA JUMPI DUP1 PUSH4 0x9B4BC108 EQ PUSH2 0x118 JUMPI DUP1 PUSH4 0xB94E2B7D EQ PUSH2 0x136 JUMPI DUP1 PUSH4 0xC71AA68F EQ PUSH2 0x166 JUMPI DUP1 PUSH4 0xF7B2A7BE EQ PUSH2 0x184 JUMPI PUSH2 0x93 JUMP JUMPDEST DUP1 PUSH4 0x5408989 EQ PUSH2 0x98 JUMPI DUP1 PUSH4 0x2BE9C52C EQ PUSH2 0xB4 JUMPI DUP1 PUSH4 0x3A943492 EQ PUSH2 0xD2 JUMPI DUP1 PUSH4 0x3CCFD60B EQ PUSH2 0xF0 JUMPI JUMPDEST PUSH1 0x0 DUP1 REVERT JUMPDEST PUSH2 0xB2 PUSH1 0x4 DUP1 CALLDATASIZE SUB DUP2 ADD SWAP1 PUSH2 0xAD SWAP2 SWAP1 PUSH2 0x47E JUMP JUMPDEST PUSH2 0x1A2 JUMP JUMPDEST STOP JUMPDEST PUSH2 0xBC PUSH2 0x2D0 JUMP JUMPDEST PUSH1 0x40 MLOAD PUSH2 0xC9 SWAP2 SWAP1 PUSH2 0x4CD JUMP JUMPDEST PUSH1 0x40 MLOAD DUP1 SWAP2 SUB SWAP1 RETURN JUMPDEST PUSH2 0xDA PUSH2 0x2D6 JUMP JUMPDEST PUSH1 0x40 MLOAD PUSH2 0xE7 SWAP2 SWAP1 PUSH2 0x4CD JUMP JUMPDEST PUSH1 0x40 MLOAD DUP1 SWAP2 SUB SWAP1 RETURN JUMPDEST PUSH2 0xF8 PUSH2 0x2DC JUMP JUMPDEST STOP JUMPDEST PUSH2 0x102 PUSH2 0x3D3 JUMP JUMPDEST PUSH1 0x40 MLOAD PUSH2 0x10F SWAP2 SWAP1 PUSH2 0x529 JUMP JUMPDEST PUSH1 0x40 MLOAD DUP1 SWAP2 SUB SWAP1 RETURN JUMPDEST PUSH2 0x120 PUSH2 0x3F7 JUMP JUMPDEST PUSH1 0x40 MLOAD PUSH2 0x12D SWAP2 SWAP1 PUSH2 0x4CD JUMP JUMPDEST PUSH1 0x40 MLOAD DUP1 SWAP2 SUB SWAP1 RETURN JUMPDEST PUSH2 0x150 PUSH1 0x4 DUP1 CALLDATASIZE SUB DUP2 ADD SWAP1 PUSH2 0x14B SWAP2 SWAP1 PUSH2 0x47E JUMP JUMPDEST PUSH2 0x3FD JUMP JUMPDEST PUSH1 0x40 MLOAD PUSH2 0x15D SWAP2 SWAP1 PUSH2 0x55F JUMP JUMPDEST PUSH1 0x40 MLOAD DUP1 SWAP2 SUB SWAP1 RETURN JUMPDEST PUSH2 0x16E PUSH2 0x437 JUMP JUMPDEST PUSH1 0x40 MLOAD PUSH2 0x17B SWAP2 SWAP1 PUSH2 0x4CD JUMP JUMPDEST PUSH1 0x40 MLOAD DUP1 SWAP2 SUB SWAP1 RETURN JUMPDEST PUSH2 0x18C PUSH2 0x43D JUMP JUMPDEST PUSH1 0x40 MLOAD PUSH2 0x199 SWAP2 SWAP1 PUSH2 0x593 JUMP JUMPDEST PUSH1 0x40 MLOAD DUP1 SWAP2 SUB SWAP1 RETURN JUMPDEST PUSH31 0x26685A14AD3F1DCFE983FE17A22A2AFD4D3C21CAFD9AD5C8FFA86FA28B587A PUSH1 0x1 SLOAD PUSH1 0x2 SLOAD PUSH1 0x3 SLOAD PUSH1 0x4 SLOAD DUP7 DUP7 PUSH1 0x40 MLOAD PUSH2 0x1E2 SWAP7 SWAP6 SWAP5 SWAP4 SWAP3 SWAP2 SWAP1 PUSH2 0x5AE JUMP JUMPDEST PUSH1 0x40 MLOAD DUP1 SWAP2 SUB SWAP1 LOG1 PUSH2 0x1F4 DUP3 DUP3 PUSH2 0x3FD JUMP JUMPDEST PUSH2 0x233 JUMPI PUSH1 0x40 MLOAD PUSH32 0x8C379A000000000000000000000000000000000000000000000000000000000 DUP2 MSTORE PUSH1 0x4 ADD PUSH2 0x22A SWAP1 PUSH2 0x692 JUMP JUMPDEST PUSH1 0x40 MLOAD DUP1 SWAP2 SUB SWAP1 REVERT JUMPDEST CALLER PUSH20 0xFFFFFFFFFFFFFFFFFFFFFFFFFFFFFFFFFFFFFFFF AND PUSH2 0x8FC PUSH1 0x5 SLOAD SWAP1 DUP2 ISZERO MUL SWAP1 PUSH1 0x40 MLOAD PUSH1 0x0 PUSH1 0x40 MLOAD DUP1 DUP4 SUB DUP2 DUP6 DUP9 DUP9 CALL SWAP4 POP POP POP POP ISZERO DUP1 ISZERO PUSH2 0x27B JUMPI RETURNDATASIZE PUSH1 0x0 DUP1 RETURNDATACOPY RETURNDATASIZE PUSH1 0x0 REVERT JUMPDEST POP CALLER PUSH20 0xFFFFFFFFFFFFFFFFFFFFFFFFFFFFFFFFFFFFFFFF AND PUSH32 0x106F923F993C2149D49B4255FF723ACAFA1F2D94393F561D3EDA32AE348F7241 PUSH1 0x5 SLOAD PUSH1 0x40 MLOAD PUSH2 0x2C4 SWAP2 SWAP1 PUSH2 0x593 JUMP JUMPDEST PUSH1 0x40 MLOAD DUP1 SWAP2 SUB SWAP1 LOG2 POP POP JUMP JUMPDEST PUSH1 0x4 SLOAD DUP2 JUMP JUMPDEST PUSH1 0x2 SLOAD DUP2 JUMP JUMPDEST PUSH1 0x0 DUP1 SLOAD SWAP1 PUSH2 0x100 EXP SWAP1 DIV PUSH20 0xFFFFFFFFFFFFFFFFFFFFFFFFFFFFFFFFFFFFFFFF AND PUSH20 0xFFFFFFFFFFFFFFFFFFFFFFFFFFFFFFFFFFFFFFFF AND CALLER PUSH20 0xFFFFFFFFFFFFFFFFFFFFFFFFFFFFFFFFFFFFFFFF AND EQ PUSH2 0x36A JUMPI PUSH1 0x40 MLOAD PUSH32 0x8C379A000000000000000000000000000000000000000000000000000000000 DUP2 MSTORE PUSH1 0x4 ADD PUSH2 0x361 SWAP1 PUSH2 0x6FE JUMP JUMPDEST PUSH1 0x40 MLOAD DUP1 SWAP2 SUB SWAP1 REVERT JUMPDEST PUSH1 0x0 DUP1 SLOAD SWAP1 PUSH2 0x100 EXP SWAP1 DIV PUSH20 0xFFFFFFFFFFFFFFFFFFFFFFFFFFFFFFFFFFFFFFFF AND PUSH20 0xFFFFFFFFFFFFFFFFFFFFFFFFFFFFFFFFFFFFFFFF AND PUSH2 0x8FC SELFBALANCE SWAP1 DUP2 ISZERO MUL SWAP1 PUSH1 0x40 MLOAD PUSH1 0x0 PUSH1 0x40 MLOAD DUP1 DUP4 SUB DUP2 DUP6 DUP9 DUP9 CALL SWAP4 POP POP POP POP ISZERO DUP1 ISZERO PUSH2 0x3D0 JUMPI RETURNDATASIZE PUSH1 0x0 DUP1 RETURNDATACOPY RETURNDATASIZE PUSH1 0x0 REVERT JUMPDEST POP JUMP JUMPDEST PUSH1 0x0 DUP1 SLOAD SWAP1 PUSH2 0x100 EXP SWAP1 DIV PUSH20 0xFFFFFFFFFFFFFFFFFFFFFFFFFFFFFFFFFFFFFFFF AND DUP2 JUMP JUMPDEST PUSH1 0x1 SLOAD DUP2 JUMP JUMPDEST PUSH1 0x0 PUSH1 0x1 SLOAD DUP4 SLT ISZERO DUP1 ISZERO PUSH2 0x413 JUMPI POP PUSH1 0x2 SLOAD DUP4 SGT ISZERO JUMPDEST DUP1 ISZERO PUSH2 0x421 JUMPI POP PUSH1 0x3 SLOAD DUP3 SLT ISZERO JUMPDEST DUP1 ISZERO PUSH2 0x42F JUMPI POP PUSH1 0x4 SLOAD DUP3 SGT ISZERO JUMPDEST SWAP1 POP SWAP3 SWAP2 POP POP JUMP JUMPDEST PUSH1 0x3 SLOAD DUP2 JUMP JUMPDEST PUSH1 0x5 SLOAD DUP2 JUMP JUMPDEST PUSH1 0x0 DUP1 REVERT JUMPDEST PUSH1 0x0 DUP2 SWAP1 POP SWAP2 SWAP1 POP JUMP JUMPDEST PUSH2 0x45B DUP2 PUSH2 0x448 JUMP JUMPDEST DUP2 EQ PUSH2 0x466 JUMPI PUSH1 0x0 DUP1 REVERT JUMPDEST POP JUMP JUMPDEST PUSH1 0x0 DUP2 CALLDATALOAD SWAP1 POP PUSH2 0x478 DUP2 PUSH2 0x452 JUMP JUMPDEST SWAP3 SWAP2 POP POP JUMP JUMPDEST PUSH1 0x0 DUP1 PUSH1 0x40 DUP4 DUP6 SUB SLT ISZERO PUSH2 0x495 JUMPI PUSH2 0x494 PUSH2 0x443 JUMP JUMPDEST JUMPDEST PUSH1 0x0 PUSH2 0x4A3 DUP6 DUP3 DUP7 ADD PUSH2 0x469 JUMP JUMPDEST SWAP3 POP POP PUSH1 0x20 PUSH2 0x4B4 DUP6 DUP3 DUP7 ADD PUSH2 0x469 JUMP JUMPDEST SWAP2 POP POP SWAP3 POP SWAP3 SWAP1 POP JUMP JUMPDEST PUSH2 0x4C7 DUP2 PUSH2 0x448 JUMP JUMPDEST DUP3 MSTORE POP POP JUMP JUMPDEST PUSH1 0x0 PUSH1 0x20 DUP3 ADD SWAP1 POP PUSH2 0x4E2 PUSH1 0x0 DUP4 ADD DUP5 PUSH2 0x4BE JUMP JUMPDEST SWAP3 SWAP2 POP POP JUMP JUMPDEST PUSH1 0x0 PUSH20 0xFFFFFFFFFFFFFFFFFFFFFFFFFFFFFFFFFFFFFFFF DUP3 AND SWAP1 POP SWAP2 SWAP1 POP JUMP JUMPDEST PUSH1 0x0 PUSH2 0x513 DUP3 PUSH2 0x4E8 JUMP JUMPDEST SWAP1 POP SWAP2 SWAP1 POP JUMP JUMPDEST PUSH2 0x523 DUP2 PUSH2 0x508 JUMP JUMPDEST DUP3 MSTORE POP POP JUMP JUMPDEST PUSH1 0x0 PUSH1 0x20 DUP3 ADD SWAP1 POP PUSH2 0x53E PUSH1 0x0 DUP4 ADD DUP5 PUSH2 0x51A JUMP JUMPDEST SWAP3 SWAP2 POP POP JUMP JUMPDEST PUSH1 0x0 DUP2 ISZERO ISZERO SWAP1 POP SWAP2 SWAP1 POP JUMP JUMPDEST PUSH2 0x559 DUP2 PUSH2 0x544 JUMP JUMPDEST DUP3 MSTORE POP POP JUMP JUMPDEST PUSH1 0x0 PUSH1 0x20 DUP3 ADD SWAP1 POP PUSH2 0x574 PUSH1 0x0 DUP4 ADD DUP5 PUSH2 0x550 JUMP JUMPDEST SWAP3 SWAP2 POP POP JUMP JUMPDEST PUSH1 0x0 DUP2 SWAP1 POP SWAP2 SWAP1 POP JUMP JUMPDEST PUSH2 0x58D DUP2 PUSH2 0x57A JUMP JUMPDEST DUP3 MSTORE POP POP JUMP JUMPDEST PUSH1 0x0 PUSH1 0x20 DUP3 ADD SWAP1 POP PUSH2 0x5A8 PUSH1 0x0 DUP4 ADD DUP5 PUSH2 0x584 JUMP JUMPDEST SWAP3 SWAP2 POP POP JUMP JUMPDEST PUSH1 0x0 PUSH1 0xC0 DUP3 ADD SWAP1 POP PUSH2 0x5C3 PUSH1 0x0 DUP4 ADD DUP10 PUSH2 0x4BE JUMP JUMPDEST PUSH2 0x5D0 PUSH1 0x20 DUP4 ADD DUP9 PUSH2 0x4BE JUMP JUMPDEST PUSH2 0x5DD PUSH1 0x40 DUP4 ADD DUP8 PUSH2 0x4BE JUMP JUMPDEST PUSH2 0x5EA PUSH1 0x60 DUP4 ADD DUP7 PUSH2 0x4BE JUMP JUMPDEST PUSH2 0x5F7 PUSH1 0x80 DUP4 ADD DUP6 PUSH2 0x4BE JUMP JUMPDEST PUSH2 0x604 PUSH1 0xA0 DUP4 ADD DUP5 PUSH2 0x4BE JUMP JUMPDEST SWAP8 SWAP7 POP POP POP POP POP POP POP JUMP JUMPDEST PUSH1 0x0 DUP3 DUP3 MSTORE PUSH1 0x20 DUP3 ADD SWAP1 POP SWAP3 SWAP2 POP POP JUMP JUMPDEST PUSH32 0x5468652070726F766964656420636F6F7264696E6174657320617265206E6F74 PUSH1 0x0 DUP3 ADD MSTORE PUSH32 0x2077697468696E207468652073706563696669656420626F756E64732E000000 PUSH1 0x20 DUP3 ADD MSTORE POP JUMP JUMPDEST PUSH1 0x0 PUSH2 0x67C PUSH1 0x3D DUP4 PUSH2 0x60F JUMP JUMPDEST SWAP2 POP PUSH2 0x687 DUP3 PUSH2 0x620 JUMP JUMPDEST PUSH1 0x40 DUP3 ADD SWAP1 POP SWAP2 SWAP1 POP JUMP JUMPDEST PUSH1 0x0 PUSH1 0x20 DUP3 ADD SWAP1 POP DUP2 DUP2 SUB PUSH1 0x0 DUP4 ADD MSTORE PUSH2 0x6AB DUP2 PUSH2 0x66F JUMP JUMPDEST SWAP1 POP SWAP2 SWAP1 POP JUMP JUMPDEST PUSH32 0x4F6E6C7920746865206F776E65722063616E2077697468647261772E00000000 PUSH1 0x0 DUP3 ADD MSTORE POP JUMP JUMPDEST PUSH1 0x0 PUSH2 0x6E8 PUSH1 0x1C DUP4 PUSH2 0x60F JUMP JUMPDEST SWAP2 POP PUSH2 0x6F3 DUP3 PUSH2 0x6B2 JUMP JUMPDEST PUSH1 0x20 DUP3 ADD SWAP1 POP SWAP2 SWAP1 POP JUMP JUMPDEST PUSH1 0x0 PUSH1 0x20 DUP3 ADD SWAP1 POP DUP2 DUP2 SUB PUSH1 0x0 DUP4 ADD MSTORE PUSH2 0x717 DUP2 PUSH2 0x6DB JUMP JUMPDEST SWAP1 POP SWAP2 SWAP1 POP JUMP INVALID LOG2 PUSH5 0x6970667358 0x22 SLT KECCAK256 0xDC PUSH10 0xCEC09C480EDBE4D4C2EB 0xC5 0x1F 0xC5 REVERT 0x2C PUSH31 0xAFFA7E30827161AB54A427BB95A364736F6C63430008120033000000000000 "},"methodIdentifiers":{"claimReward(int256,int256)":"05408989","isWithinBounds(int256,int256)":"b94e2b7d","maxLatitude()":"3a943492","maxLongitude()":"2be9c52c","minLatitude()":"9b4bc108","minLongitude()":"c71aa68f","owner()":"8da5cb5b","rewardAmount()":"f7b2a7be","withdraw()":"3ccfd60b"}}}}}